:020000040800F2
:100000008006002001010008E5180008E11400083E
:100010006D180008590D00081124000800000000A8
:10002000000000000000000000000000F51B0008B8
:10003000850E000800000000211B0008291D000893
:100040001B0100081B0100081B0100081B01000820
:100050001B0100081B0100081B0100081B01000810
:100060001B0100081B0100081B0100081B01000800
:100070001B0100081B0100081B0100081B010008F0
:100080001B0100081B0100081B0100081B010008E0
:100090001B0100081B0100081B0100081B010008D0
:1000A0001B010008ED1D00081B0100081B010008D2
:1000B0005D1E00081B0100081B0100081B01000851
:1000C0001B0100081B0100081B0100081B010008A0
:1000D0001B0100081B0100081B0100081B01000890
:1000E0001B0100081B0100081B010008DFF80CD0F1
:1000F00000F07EFB00480047112E0008800600201B
:100100000648804706480047FEE7FEE7FEE7FEE7B1
:10011000FEE7FEE7FEE7FEE7FEE7FEE7391D000823
:10012000ED00000840EA01039B0703D009E008C97D
:10013000121F08C0042AFAD203E011F8013B00F8AC
:10014000013B521EF9D2704770B5064602F076F9AF
:10015000046805460A220021304600F0DDF92C60D3
:1001600070BD2DE9FE4F804681EA0300C00F0C46AA
:10017000009021F0004123F00045B8EB0200A941B6
:1001800005D24046214690461C460B46024623F0C7
:100190000040104347D0270DC7F30A00C3F30A51AC
:1001A0000290401A019040286BDAC3F3130040F428
:1001B000801B0098924620B10023D2EB030A63EB28
:1001C0000B0B01985946C0F14002504600F083F9EC
:1001D00006460D4650465946019A00F08BF910EB41
:1001E00008006141002487EA115284EAE7731A4348
:1001F00040D0009A62B3019A012A4FEA075215DCF7
:10020000001B61EB02014FF0004202EA0752CDE908
:100210000042001C41F5801132462B4600F0FAF9ED
:1002200003B0BDE8F08F40462146F9E7001B61EBC3
:100230000201001C41F5801300185B412018A2F553
:10024000001747EB030140EAD570B6196D4111E084
:100250006D084FEA360645EAC0754FEA0752001BA3
:1002600061EB0201001C41F5801149084FEA3000A2
:100270000019514132462B4603B0BDE8F04F00F063
:10028000BAB90098012240000023D0EB020263EBD0
:10029000E073009821464FEAE074B8EB000061EB90
:1002A0000401E9E783F000435BE781F0004158E790
:1002B0002DE9FE4F81EA030404F0004421F00041DF
:1002C00000944FF0000B23F0004350EA01045ED08D
:1002D00052EA03045BD0C3F30A54C1F30A552C4419
:1002E000A4F2F3340194A0FB0254C1F3130141F4CE
:1002F0008011C3F3130343F4801301FB024400FB9A
:10030000034E840A970A44EA815447EA8357A4FBC0
:10031000076802958D0A05FB07854FEA932C04FBBD
:100320000C542705029D4FEA065847EA1637B5EBED
:1003300008056EEB070C870E920E47EA811742EA1A
:100340008312A7FB0201B6EB0B0164EB00042B0D3B
:1003500043EA0C335E1844EB1C50DA465146E7FB87
:100360000201C5F313044FEA0B3343EA14534FEA77
:100370000432019C43EA0603A4F10C040294009C9D
:10038000CDE900B400F046F903B0BDE8F08F0020DD
:100390000146F9E796230022114600F0FEB80EB59B
:1003A000C10F80EAE0700844CA07002140F23343DD
:1003B0008DE80E000A460B4600F02CF903B000BD94
:1003C00000F0004230F000400AD0C10D01F560712C
:1003D000C0F3160042EA0151C208400711437047BA
:1003E00000200146704701F0004330B421F0004185
:1003F00050EA010206D00A0DA2F56072C1F31301A2
:10040000002A02DC30BC00207047440F44EAC104DB
:10041000C100E01830BC00EBC25000F0B5B80000DD
:10042000002801DBC0F10040002901DBC1F10041DF
:1004300081427047002801DBC0F10040002901DB48
:10044000C1F100418842704730B50B46014600209B
:100450002022012409E021FA02F59D4205D303FA86
:1004600002F5491B04FA02F52844151EA2F1010207
:10047000F1DC30BD2DE9F05F0546002092469B4639
:1004800088460646814640241BE0284641464746AA
:10049000224600F0BFF953465A46C01A914110D384
:1004A00011461846224600F016F82D1A67EB01088F
:1004B0004F4622460120002100F00DF817EB0009FD
:1004C0004E41201EA4F10104DFDC484631462A4695
:1004D0004346BDE8F09F202A04DB203A00FA02F1EF
:1004E000002070479140C2F1200320FA03F3194322
:1004F00090407047202A06DBCB17203A41FA02F0E1
:1005000043EAE07306E041FA02F3D040C2F1200270
:1005100091400843194670472DE9F04791460F4630
:1005200080460446002614F8015B2DB100F082F9E4
:100530000068405DC007F6D12B2D02D02D2D18D0BC
:10054000641E4A463946204600F078F927B13968DA
:10055000A14201D1C7F8008071054FF002040BD50C
:100560004042002803DD01F069FF0460A007BDE8F8
:10057000F08746F48066E4E70028F8DA01F05EFFD1
:1005800004606FF00040F2E70029A8BF7047401CEC
:10059000490008BF20F00100704710B4B0FA80FC99
:1005A00000FA0CF050EA010404BF10BC704749B1D6
:1005B000CCF1200421FA04F411FA0CF118BF012146
:1005C00021430843A3EB0C01CB1D4FEA00614FEA26
:1005D000102042BF002010BC704700EBC3501044F5
:1005E0000029A4BF10BC7047401C490008BF20F080
:1005F000010010BC704710B5141E73F1000408DA36
:10060000401C41F1000192185B411A4301D120F0D6
:10061000010010BD2DE9F04D92469B4611B1B1FA93
:1006200081F202E0B0FA80F220329046FFF753FFE9
:1006300004460F4640EA0A0041EA0B0153465A4677
:10064000084313D0114653EA010019D0C8F1400203
:10065000504600F0DFF805460E46504659464246E1
:10066000FFF739FF084305D0012004E02046394652
:10067000BDE8F08D0020054346EAE0762C43374381
:100680000A986305E40AA0EB08000022FD0A44EA88
:1006900047540A3002D500200146E9E70105101948
:1006A0006941DDE9084500196941BDE8F04DA2E75F
:1006B0002DE9F04D81EA030404F0004B21F00045E0
:1006C00014464FF0000A23F0004150EA050220D002
:1006D00054EA01021DD0C5F30A570246C5F31303BD
:1006E000C1F31300C1F30A5640F4801543F480139C
:1006F000A7EB0608101BD64608F2FD3873EB050081
:1007000002D308F1010801E092185B41B8F1000F33
:1007100003DA00200146BDE8F08D00204FF480117F
:10072000064684460EE0171B73EB050705D3121B24
:1007300063EB050306434CEA010C49084FEA30001D
:1007400092185B4150EA0107EDD152EA030012D042
:1007500082EA040083EA0501084305D0101BAB417F
:1007600006D20122002306E000224FF0004302E0FF
:100770006FF0010253101AEB06004CEB085110EB1E
:100780000A0041EB0B01BDE8F04DFFF734BFC1F3A8
:100790000A52C1F3130140F2FF3341F480119A422F
:1007A00002DA00200146704740F233439A42A2F237
:1007B000334202DC524200F02DB8FFF78CBE00003D
:1007C00030B5041E71F1000404DB4FF000444042D8
:1007D00064EB0101141E73F1000405DB1C464FF0AD
:1007E0000043524263EB0403994208BF904230BD7C
:1007F000064C074D06E0E06840F0010394E807006E
:1008000098471034AC42F6D3FFF774FC1C4A00083A
:100810003C4A0008202A04DB203A21FA02F0002199
:10082000704721FA02F3D040C2F120029140084300
:100830001946704700487047184A00082DE9F05FD4
:1008400082460078002715468B460AF10104B94616
:10085000302801D09DB113E014F8010B012778284E
:1008600003D0582801D045B10AE00DB1102D07D1B1
:100870000027102514F8010B02E0082500E00A25E6
:100880000026B0460EE005FB080005FB06F1012737
:1008900001EB10461FFA80F8B6F5803F00D3B94649
:1008A00014F8010B294600F018F80028EBDABBF128
:1008B000000F05D00FB1641E00E05446CBF8004095
:1008C000B9F1000F06D001F0B9FD02210160C81E88
:1008D000BDE8F09F48EA0640FAE73A2800D23038EF
:1008E00020F02002412A01D3A2F13700884201D32F
:1008F0004FF0FF30704721B1826842F00102826000
:1009000003E0826822F001028260704710B504465D
:100910001248844208D10121401501F03FF900211D
:10092000601501F03BF917E00D48844208D1012120
:10093000001501F033F90021201501F02FF90BE02B
:100940000848844208D10121C80301F027F9002199
:100950004FF4004001F022F910BD000000240140D6
:1009600000280140003C0140014600208A6802F056
:1009700004020AB1012000E0002070470146C86C63
:1009800080B270470246002013680B400BB1012073
:1009900000E000207047014600208A6802F008024B
:1009A0000AB1012000E000207047000030B5024687
:1009B0000020002350680F4C20400D790C6844EA59
:1009C00005242043506090680B4C2040D1E902542C
:1009D0002C434D7944EA450420439060D06A20F4CA
:1009E00070000C7C641EE4B2234340EA0350D062E2
:1009F00030BD0000FFFEF0FFFDF7F1FFF0B504464B
:100A00000D4600200021092D11DDE068A5F10A0640
:100A100006EB4607072606FA07F18843A5F10A0602
:100A200006EB460603FA06F10843E0600CE0206995
:100A300005EB4507072606FA07F1884305EB45064F
:100A400003FA06F108432061072A0FDA606B561E8D
:100A500006EB86071F2606FA07F18843561E06EBAB
:100A6000860605FA06F10843606322E00D2A0FDAD4
:100A7000206BD61F06EB86071F2606FA07F1884370
:100A8000D61F06EB860605FA06F10843206310E040
:100A9000E06AA2F10D0606EB86071F2606FA07F1AB
:100AA0008843A2F10D0606EB860605FA06F1084317
:100AB000E062F0BD816841F008018160704721B1BA
:100AC000826842F4A002826003E0826822F4A002FD
:100AD00082607047816841F00401816070470000C6
:100AE00010B515488078012804D10102134800F0A0
:100AF0008EFC04E04FF48071104800F086FC0E4834
:100B0000C078012804D141030D4800F080FC04E0C6
:100B10004FF400510A4800F078FC0748007901289A
:100B200003D100020749086004E04FF480700549D2
:100B3000091D086010BD00000B000020000C0140E2
:100B4000001001401008014000B587B001214FF4AA
:100B5000027001F013F84FF4004000F0E3FF0120B1
:100B6000ADF8040000208DF8070001A9174800F037
:100B7000B8FB1748FFF7CAFE002002908DF80C0062
:100B80008DF80D004FF460200490002005900120A6
:100B90008DF8180002A90E48FFF708FF01210C4844
:100BA000FFF7A9FE0A48FFF785FF00BF0848FFF7D7
:100BB000F2FE0028FAD10648FFF78CFF00BF044878
:100BC000FFF7D2FE0028FAD107B000BD000C0140AB
:100BD0000024014010B50446032C01D0072C06D197
:100BE00010231FA20021702002F08AFA05E01023D2
:100BF0001CA20021702002F083FA0CB1042C06D153
:100C0000102317A20221702002F07AFA05E01023C7
:100C100014A20221702002F073FA012C01D0052CDD
:100C200006D110230EA20421702002F069FA05E01B
:100C300010230CA20421702002F062FA022C01D0D1
:100C4000062C06D1102306A20621702002F058FAC5
:100C500005E0102303A20621702002F051FA10BD16
:100C60002A0000002000000010B5234880780A28E0
:100C700003DD01202149087002E000201F490870AF
:100C80001E48007820B901201C49C870087119E07D
:100C9000194948680021FFF7C3FB0FD0184988782D
:100CA000FFF778FB0446144841682046FFF7C2FB73
:100CB00004D201201149C870087103E000200F49D7
:100CC000C87008710C4948680021FFF7A9FB0ED0D5
:100CD0000B498878FFF75EFB0446074841682046C9
:100CE000FFF7A8FB03D201200449887002E000202E
:100CF0000249887010BD0000000000200B00002099
:100D00000800002010B500F0A7FA342000F010FA17
:100D100000F06AFA02F01CFA01F052FA10BD00006D
:100D200008B50121042000F029FF4FF48070ADF8D0
:100D3000000010208DF8030003208DF802006946A2
:100D4000044800F0CEFA4FF4807002491431086074
:100D500008BD00000008014000BFFEE708B5012102
:100D6000042000F00BFF0120ADF8000003208DF8F7
:100D7000020010208DF803006946094800F0B1FA1E
:100D80000120074910310860642002F02DF800F0BE
:100D900033F818B1012002491031086008BD000085
:100DA0000008014010B5002401200A49086002F043
:100DB00021F801200749091F0860142002F01AF8E1
:100DC00004480C38006800F00104282002F012F8F2
:100DD000204610BD1408014070B50025002406E02F
:100DE000FFF7E0FFA0402843C5B2601CC4B2082C46
:100DF000F6DB284670BD000010B501200C490860E4
:100E00004FF4F07001F0F6FF01200949091F086056
:100E10003C2001F0EFFF06480C38006800F00104A8
:100E2000C82001F0E7FF0CB9012010BD0020FCE74D
:100E30001408014010B5044601200A490860022048
:100E400001F0D8FF1CB101200649091F08603C20B1
:100E500001F0D0FF01200349091F0860022001F0C2
:100E6000C9FF10BD1408014070B50446002506E016
:100E700004F00100FFF7DEFF6410681CC5B2082D06
:100E8000F6DB70BD7047014605E0002001E0421C22
:100E9000D0B27B28FBDB0A1EA1F10101F5D170471E
:100EA00008B500221146104602F0B2F801220021D6
:100EB000102002F0ADF802220021202002F0A8F854
:100EC00003220021302002F0A3F80F22022100208B
:100ED00002F09EF810220221104602F099F8102329
:100EE0002CA20221302002F00BF9102000902A4899
:100EF000028803230221402002F0BEF8102327A21B
:100F00000221602002F0FCF811220421002002F0EE
:100F10007FF812220421102002F07AF810231DA27B
:100F20000421302002F0ECF81E48007801280AD194
:100F300013220421402002F06BF8142204215020D7
:100F400002F066F809E015220421402002F060F862
:100F50001D220421502002F05BF8162206210020F9
:100F600002F056F817220621102002F051F8102343
:100F700008A20621302002F0C3F8074810230621FA
:100F80004268402000F08EFD18220621602002F009
:100F90003FF808BD3A000000000000202F6D696E88
:100FA000000000000B00002010B54E48008842F2FF
:100FB000107190FBF1F030304B49087049480088BF
:100FC00042F2107190FBF1F201FB12004FF47A71C2
:100FD00090FBF1F0303044494870424800884FF4AB
:100FE0007A7190FBF1F201FB1200642190FBF1F0A9
:100FF00030303D4988703B480088642190FBF1F215
:1010000001FB12000A2190FBF1F030303649C87024
:10101000344800880A2190FBF1F201FB12003030C5
:10102000314908713148006841F27071B1FBF0F04C
:101030002F4908602D4800684FF47A71B0FBF1F237
:1010400001FB12006421B0FBF1F0303029498870B7
:10105000264800686421B0FBF1F201FB12000A216E
:10106000B0FBF1F030302349C870204800680A21F5
:10107000B0FBF1F201FB120030301E4908711C4830
:1010800000684FF47A71B0FBF1F201FB12006421A9
:10109000B0FBF1F030301849087015480068642141
:1010A000B0FBF1F201FB12000A21B0FBF1F030308D
:1010B000114948700E4800680A21B0FBF1F201FBAB
:1010C000120030300C4988700C480A8802808978F8
:1010D000817000200949C8700846FFF735F80849B3
:1010E000088010BD54000020300000205C0000206B
:1010F00060000020410000204B0000206400002020
:101100000000002008B50121082000F037FD022072
:10111000ADF8000048208DF8030003208DF8020090
:101120006946024800F0DDF808BD0000000C0140EF
:101130000149C860704700000020024030B50446F5
:1011400004254FF4302000F093F80546042D17D104
:101150000C48006940F002000A49086108464461F1
:10116000006940F0400008614FF4302000F080F842
:1011700005460448006941F6FD71084001490861CF
:10118000284630BD0020024070B5044600F064F8E7
:101190003520FFF7CDFF2046FFF7D0FF0546042D91
:1011A00003D000F021F8002070BD00F01DF80120F0
:1011B000FAE7000004200B49C96801F0010109B1F8
:1011C00001200EE00749C96801F0040109B10220BD
:1011D00007E00449C96801F0100109B1032000E0EB
:1011E00004207047002002400348006940F080005E
:1011F00001490861704700000020024070B50446B4
:101200000D460426F00200F033F80646042E11D1F4
:101210000948006940F00100074908612580F00293
:1012200000F026F806460448006941F6FE710840C1
:1012300001490861304670BD0020024010B50346E8
:10124000002005E033F8104021F81040441CA0B203
:101250009042F7D310BD000002480349486003489C
:10126000486070472301674500200240AB89EFCDFD
:1012700000B502460423FFF79DFF034603E0FFF796
:1012800099FF0346521E012B01D1002AF7D102B962
:101290000523184600BD2DE9F04105460F4690464E
:1012A00005F0010010B10020BDE8F0812846FFF7ED
:1012B0006BFFFFF7D1FF00240DE037F8141005EBAA
:1012C0004400FFF79BFF0646042E03D0FFF78CFF78
:1012D0000020E9E7641C4445EFD3FFF785FF0120B8
:1012E000E2E72DE9F0410246002500260020002318
:1012F0000024002791F803C00CF00F0591F803C0FB
:101300000CF0100CBCF1000F03D091F802C04CEAB5
:10131000050591F800C0BCF1000F31D01468002021
:101320002BE04FF0010C0CFA00F3B1F800C00CEA0E
:1013300003069E4220D183004FF00F0C0CFA03F7F6
:10134000BC4305FA03FC4CEA040491F803C0BCF169
:10135000280F06D14FF0010C0CFA00FCC2F814C0A3
:101360000AE091F803C0BCF1480F05D14FF0010C21
:101370000CFA00FCC2F810C0401C0828D1D314603D
:10138000B1F800C0BCF1FF0F34DD546800202EE03E
:1013900000F1080C4FF0010808FA0CF3B1F800C096
:1013A0000CEA03069E4221D183004FF00F0C0CFA89
:1013B00003F7BC4305FA03FC4CEA040491F803C0AC
:1013C000BCF1280F05D100F1080C08FA0CF8C2F89E
:1013D000148091F803C0BCF1480F07D100F1080C4C
:1013E0004FF0010808FA0CF8C2F81080401C0828D9
:1013F000CED35460BDE8F0810246002093680B40D4
:101400000BB1012000E0002070474161704701618D
:101410007047000010B500BF0C4801684FF0E02095
:1014200082690A4800688142F6D109480068094B80
:10143000B0FBF3F0B2FBF0F001EB4103C3EBC113DF
:101440004FF47A7404EBC303181A10BD180000207F
:101450006800002040420F0010B504460723012217
:1014600021460948FFF7CAFA01210748FFF727FB81
:1014700000BF02210448FFF785FA0028F9D002488E
:10148000FFF77CFA10BD0000002401402DE9F04177
:1014900007460C460025002608E03846FFF7DCFF2B
:1014A0000544052001F0A0FC701CC6B2A642F4DB86
:1014B000B5FBF4F080B2BDE8F08100B5014600F064
:1014C00009F802460B4600BF00F004F8801A984263
:1014D000FAD300BD014800687047000018000020E2
:1014E00000BFFEE770B5044608251DE04FF48050AC
:1014F0001249086000F0A0F804F0800028B14FF411
:1015000000600E49091F086003E04FF400600B49BA
:1015100008606006040E00F08FF84FF48050074911
:10152000091F086000F088F8281EA5F10101CDB25E
:10153000DCD14FF480500149086070BD14080140AF
:1015400010B54FF40060154908604000086000F0D5
:1015500073F812480838006808B9012000E000203C
:1015600000F4006008B1002010BD4FF400600B498A
:10157000091D086000F060F808480838006800F4A9
:10158000006008B10020EFE74FF400600349091D37
:10159000086000F051F80120E6E700001008014063
:1015A00010B54FF480500C49086000F045F84FF436
:1015B00000600949086000F03FF84FF48050064988
:1015C000091F086000F038F84FF400600249091F55
:1015D000086000F031F810BD1408014010B54FF458
:1015E00080501449086000F027F84FF4006011495A
:1015F000091F086000F020F84FF480500D49091FC2
:10160000086000F019F80B480C38006800F400601E
:1016100038B14FF480500749086000F00DF8002001
:1016200010BD4FF480500349086000F005F8012018
:10163000F6E7000014080140052001E0411EC8B291
:101640000028FBD17047000008B50121082000F0F8
:1016500095FA4FF47040ADF8000048208DF8030073
:1016600069460848FFF73DFE69460648FFF739FE20
:1016700069460448FFF735FE69460248FFF731FE28
:1016800008BD0000000C01400348007810B901209B
:1016900001490870704700002000002003480078CE
:1016A00010B9012001490870704700002100002096
:1016B0000348007810B90120014908707047000004
:1016C000220000200348007810B901200149087069
:1016D000704700002300002010B54FF4805155489A
:1016E000FFF78AFEE0B954480068C8B9534800685B
:1016F000401C524908600846006802280FDD4FF47C
:1017000080514C48FFF778FE002808D14A4800680D
:101710000028FAD1FFF7B8FF01204749086088E0A8
:101720004FF400514348FFF767FEE0B942480068B4
:10173000C8B942480068401C404908600846006833
:10174000022876DD4FF400513A48FFF755FE002895
:101750006FD13948006800286BD1FFF79FFF012047
:101760003549086065E04FF480413248FFF744FE98
:10177000E0B931480068C8B930480068401C2F49BA
:10178000086008460068022853DD4FF4804129486C
:10179000FFF732FE00284CD127480068002848D1C6
:1017A000FFF786FF01202449086042E04FF4004122
:1017B0002048FFF721FED0B91F480068B8B91F487C
:1017C0000068401C1D49086008460068022830DD9A
:1017D0004FF400411748FFF70FFE50BB1648006852
:1017E00038BBFFF76FFF01201349086021E04FF479
:1017F00080511048FFF700FE01281AD141030D481F
:10180000FFF7FAFD012814D181030A48FFF7F4FD20
:1018100001280ED1C1030748FFF7EEFD012808D1CA
:1018200005480068012804D10020044908600249E5
:10183000086010BD000C014028000020240000209A
:1018400008B50121102000F099F94FF40050ADF8CF
:10185000000010208DF8030003208DF80200694677
:101860000148FFF73EFD08BD0010014000BFFEE744
:1018700010B5FFF735F91648007878B10020154902
:101880000870154908701549087011490870144806
:101890000078401C1249087001F0F8FA10480078EE
:1018A000022802DB00200E4908700D48007810B1B4
:1018B00001280AD104E0FFF7F3FAFFF7D5F904E0B5
:1018C00000F0A4FCFFF7D0F900BF00BF10BD00007E
:1018D0002000002023000020220000202100002002
:1018E00010000020704708B54FF4A06000F056F8D3
:1018F0001C208DF8000002208DF801008DF80200F8
:1019000001208DF80300684600F010F819208DF8CA
:10191000000002208DF801008DF8020001208DF8F2
:101920000300684600F002F808BD000070B5002111
:1019300000230F22C47804B3154C246804F4E06437
:10194000C4F5E064210AC1F10403CA40447804FAF2
:1019500003F184781440214309010E4C0678A15507
:10196000047804F01F050124AC4005786D11AD002A
:1019700005F1E025C5F8004109E0047804F01F05F1
:101980000124AC40044D0678761145F8264070BD20
:101990000CED00E000E400E080E100E002490143DA
:1019A000024A1160704700000000FA050CED00E0EB
:1019B00010B5002807DA0A07140E054A00F00F03D5
:1019C0001B1FD45403E00A07130E024A135410BD20
:1019D00018ED00E000E400E070B504460D4605F1A6
:1019E000B000002100F086F8102141EA1410002117
:1019F00000F080F804F00F00002100F07BF870BDCB
:101A00002DE9F04707460E469046994600250024EA
:101A1000A8F12000C5B27F2F02DD0027B01CC6B29E
:101A2000B9F1100F24D131463846FFF7D5FF002415
:101A300008E004EB0511194A505C012100F05AF846
:101A4000601CC4B2082CF4DB701CC1B23846FFF72E
:101A5000C3FF002409E004EB051108310F4A505C74
:101A6000012100F047F8601CC4B2082CF3DB12E03F
:101A700031463846FFF7B0FF00240AE005EB450188
:101A8000074A02EB4101085D012100F033F8601CB8
:101A9000C4B2062CF2DBBDE8F08700007C340008FD
:101AA000543200082DE9F04385B005460E46144631
:101AB000994614220C496846FEF734FB2046FEF78F
:101AC0007FFC07463A460B4608A1684600F0A2FC98
:101AD00000208DF805004B466A463146284601F045
:101AE0000FFB05B0BDE8F08380490008252E316664
:101AF0000000000070B504460D463DB1E2B2402141
:101B0000782000F0EDF80549087006E0E2B2002107
:101B1000782000F0E5F80149087070BD1C00002035
:101B20007047000001460020034A506820F44040FE
:101B300008435060704700000010024029B1064A77
:101B4000D2690243044BDA6104E0034AD26982435A
:101B5000014BDA61704700000010024029B1064ACB
:101B600012690243044B1A6104E0034A126982437A
:101B7000014B1A61704700000010024029B1064A6B
:101B800092690243044B9A6104E0034A92698243DA
:101B9000014B9A61704700000010024029B1064ACB
:101BA000D2680243044BDA6004E0034AD2688243FD
:101BB000014BDA60704700000010024008B50121B7
:101BC0000820FFF7DBFF4FF40070ADF80000102095
:101BD0008DF8030003208DF8020069460448FFF7E2
:101BE00080FB4FF400710248FFF70FFC08BD0000B6
:101BF000000C0140704710B500F002F810BD000065
:101C00000CB50020019000903348006840F480300B
:101C10003149086000BF3048006800F4003000908F
:101C20000198401C0190009818B90198B0F5A06F78
:101C3000F1D12948006800F4003010B10120009073
:101C400001E0002000900098012843D1234800685B
:101C500040F01000214908600846006820F00300A9
:101C600008600846006840F0020008601A484068B2
:101C7000194948600846406848600846406840F492
:101C8000806048600846406820F47C104860084640
:101C9000406840F4E81048600846006840F08070F2
:101CA000086000BF0C48006800F000700028F9D000
:101CB0000948406820F0030007494860084640682A
:101CC00040F00200486000BF0348406800F00C008C
:101CD0000828F9D10CBD000000100240002002408D
:101CE00070B506460C461546FFF72AFC08B90020D9
:101CF00070BD3046FFF7F6FBFFF770FC18B9FFF731
:101D00004FFC0020F4E72046FFF7ECFBFFF766FCF2
:101D10002846FFF7E7FBFFF761FCFFF741FC00F007
:101D2000FFFF0120E4E7000002480068401C014971
:101D3000086070471800002010B51348006840F094
:101D400001001149086008464068104908400E49E2
:101D50004860084600680E4908400B49086008467C
:101D6000006820F4802008600846406820F4FE00E7
:101D700048604FF41F008860FFF73DFF4FF00060A0
:101D80000449086010BD0000001002400000FFF888
:101D9000FFFFF6FE08ED00E03EB505460C46124892
:101DA00000F0A4F80121C802FFF7E8FEADF80450E6
:101DB000ADF800400020ADF80600ADF8020069461D
:101DC000094800F0A1F9684600F0F0F90121064841
:101DD00000F079F801224121034800F08CF901213B
:101DE000014800F076F83EBD002C014010B50121FD
:101DF000144800F06FF920B31348006828B913485D
:101E00000068401C1149086002E000200F4908608A
:101E10000F480068401C0E4908600C4800680628FE
:101E20000BD10C480088401C0A490880084800680B
:101E3000094908600020064908600121014800F0B6
:101E400045F810BD002C01400481214214000020FF
:101E500058000020540000205C00002010B5012133
:101E6000880700F037F928B1FFF736FC0121880711
:101E700000F02CF810BD3EB505460C464FF08040F2
:101E800000F034F801210846FFF758FEA8B2ADF87B
:101E90000400A0B2ADF800000020ADF80600ADF8D7
:101EA000020069464FF0804000F02EF9684600F0CD
:101EB0007DF901221146900700F01DF901218807E4
:101EC00000F007F83EBDCA4302827047CA4302824F
:101ED000704721B1028842F00102028004E00288CA
:101EE0004FF6FE731A4002807047000010B504469A
:101EF0006848844208D10121C014FFF74FFE002139
:101F0000E014FFF74BFEC4E0B4F1804F08D101218B
:101F10000846FFF723FE00210120FFF71FFEB8E06F
:101F20005D48844208D101210220FFF717FE0021FD
:101F30000220FFF713FEACE05848844208D101218B
:101F40000420FFF70BFE00210420FFF707FEA0E0AE
:101F50005348844208D101210820FFF7FFFD0021EA
:101F60000820FFF7FBFD94E04E48844208D1012190
:101F70001020FFF7F3FD00211020FFF7EFFD88E0B0
:101F80004948844208D101212020FFF7E7FD0021C4
:101F90002020FFF7E3FD7CE04448844208D1012182
:101FA0004014FFF7FBFD00216014FFF7F7FD70E020
:101FB0003F48844209D10121C804FFF7EFFD002109
:101FC0004FF40020FFF7EAFD63E03A48844209D16C
:101FD00001210805FFF7E2FD00214FF48010FFF713
:101FE000DDFD56E03448844209D101214805FFF760
:101FF000D5FD00214FF40010FFF7D0FD49E02F4838
:10200000844208D101214020FFF7A8FD0021402093
:10201000FFF7A4FD3DE02A48844208D10121802039
:10202000FFF79CFD00218020FFF798FD31E0254857
:10203000844208D101218015FFF790FD0021A015F1
:10204000FFF78CFD25E02048844209D101210804D6
:10205000FFF7A4FD00214FF48030FFF79FFD18E04B
:102060001A48844209D101214804FFF797FD002155
:102070004FF40030FFF792FD0BE01548844208D181
:1020800001218804FFF78AFD00214FF48020FFF72B
:1020900085FD10BD002C01400004004000080040F8
:1020A000000C0040001000400014004000340140CB
:1020B000004C014000500140005401400018004015
:1020C000001C00400020004000400140004401404E
:1020D0000048014030B50246002000230024158A44
:1020E00005EA0103958905EA010413B10CB1012049
:1020F00000E0002030BD1AB183890B43838102E0E8
:1021000083898B4383817047002202881D4B98424C
:102110000ED01D4B98420BD0B0F1804F08D01B4B16
:10212000984205D01A4B984202D01A4B984204D1DB
:102130004FF68F731A404B881A43174B984207D0BB
:10214000164B984204D04FF6FF431A40CB881A43EF
:1021500002808B8883850B8803850A4B98420BD0BD
:10216000094B984208D00E4B984205D00D4B98422F
:1021700002D00D4B984201D10B7A03860123838252
:1021800070470000002C0140003401400004004072
:1021900000080040000C0040001000400014004007
:1021A0000040014000440140004801404FF6FF71EB
:1021B000818000210180C180418001727047000050
:1021C00010B51048008845F25551884213D0502070
:1021D0000D490870282048701920887045F2555024
:1021E00008490880084608490A88428089780171B0
:1021F00001F024F805E0044802494A880280097980
:10220000817010BD800000200800002008B57A48C9
:10221000007868B100207849087078480078401C40
:102220007649087008460078032801DB0020087012
:1022300072480078FEF7CEFC71480078E8B10020C3
:102240006F4908706D48007820B1012808D0022835
:1022500012D10BE06B480078401C6A4908700BE013
:1022600068484078401C6749487005E065488078B8
:10227000401C6449887000BF00BF63480078E8B123
:102280000020614908705D48007820B1012808D01D
:10229000022812D10BE05B480078401E59490870B3
:1022A0000BE058484078401E5649487005E05548B4
:1022B0008078401E5349887000BF00BF4F480078A7
:1022C00003287CDA08220021202000F0A1FE092248
:1022D0000021302000F09CFE0A220021402000F066
:1022E00097FE0B220021502000F092FE0F220221C7
:1022F000002000F08DFE10220221104600F088FE22
:102300000C220221202000F083FE0E220221302028
:1023100000F07EFE10233DA20221402000F0F0FEDE
:10232000102000903748027803230221502000F04B
:10233000A3FE0F220421002000F06AFE10220421D7
:10234000104600F065FE0D220421202000F060FE02
:102350000E220421302000F05BFE10232BA204216A
:10236000402000F0CDFE1020009026484278032344
:102370000421502000F080FE16220621002000F0EB
:1023800047FE17220621102000F042FE0D220621F2
:10239000202000F03DFE0E220621302000F038FE05
:1023A00010231AA20621402000F0AAFE102000905F
:1023B0001448827802230621582000F05DFE11485F
:1023C0000078632802DD63200E4908700D484078CC
:1023D000012802DA00200B4948700A4880786328F7
:1023E00002DD63200749887006488078012802DAF8
:1023F00000200449887008BD210000201200002040
:102400002200002008000020230000203A000000E5
:1024100000BFFEE70FB4084B10B504A902AA039849
:1024200000F0E2F8044602A9002000F074FC204607
:1024300010BC5DF814FB0000172D00080048704721
:102440007C00002002E008C8121F08C1002AFAD14F
:1024500070477047002001E001C1121F002AFBD124
:10246000704700002DE9FF5F82B00021DDE90430F4
:10247000020DDDF840B0034318D044F61050A2F22C
:10248000FF3242431514119801281FD0A5EB0B0011
:10249000401C5FEA000A4FF000064E4FDFF838910B
:1024A000B046504615D5CAF1000413E01198012436
:1024B0004AA3012801D16FEA0B010298119AC0E9E1
:1024C0000031C0E9024206B0BDE8F09FCBF1000048
:1024D000DFE704460021404A491842EB0450CDE9A9
:1024E000001012E0E00707D032463B46404649461E
:1024F000FDF7DEFE8046894632463B4610461946C9
:10250000FDF7D6FE06460F466410002CEAD1DDE941
:102510000401DDE90023BAF1000F06DAFDF7C8FE79
:1025200042464B46FDF7C4FE05E0FEF7C1F84246C1
:102530004B46FEF7BDF804460E460022284BFEF738
:102540003FF903D84FF0FF30014607E00022254B4A
:1025500020463146FDF705FEFEF719F9102409E083
:10256000002C0ADB0A220023FDF784FF039B303294
:102570001A55641E50EA0102F2D1641C039AC4F198
:1025800011031444119A012A03D0012208430DD1EA
:102590000AE0084304D000204FF0110B119072E7BD
:1025A000A3EB0B056D1E0DE05B4504DD4FF0000253
:1025B00005F1010504E003DA4FF00002A5F1010581
:1025C000002AECD002981199C0E90231C0E9004517
:1025D00079E70000000014400000F03F30000000E8
:1025E0000000F0430000E03F2DE9FF4F95B09B460F
:1025F0008946064600250FE2252877D10024274684
:10260000F84A0121059400E0044316F8013F203BFD
:1026100001FA03F01042F7D130782A2811D06FF078
:102620002F033078A0F13002092A16D8059A44F019
:10263000020402EB820203EB42021044761C059076
:10264000EFE759F8042B0592002A03DA504244F4CC
:102650000054059044F00204761C30782E2816D1E0
:1026600016F8010F44F004042A280DD06FF02F0251
:102670003078A0F13003092B09D807EB870302EB70
:102680004303C718761CF3E759F8047B761C3078AF
:102690006C280FD006DC4C2817D068280DD06A288B
:1026A00014D104E0742810D07A280FD10DE044F43E
:1026B00000140AE044F4801401E044F440147278F9
:1026C000824202D104F58014761C761C307866288C
:1026D0000BD013DC582877D009DC002875D04528AA
:1026E000F6D04628F4D047281AD19DE118E0632897
:1026F00035D0642879D0652812D195E1702873D03F
:1027000008DC6728F1D069286FD06E280DD06F28BB
:1027100006D1B5E073282CD0752875D0782874D0F0
:102720005A46179990476D1C75E1C4F30250022870
:1027300009D003280DD0D9F8001004280DD00D6061
:1027400009F1040967E1D9F80010EA17C1E900525C
:10275000F6E7D9F800100D80F2E70D70F0E719F8F0
:10276000041B8DF8001000208DF80100EA460120BE
:1027700003E059F804AB4FF0FF3061074FF0000160
:1027800002D40DE008F101018846B9420FDA804514
:10279000F8DB1AF808100029F4D108E008F101016B
:1027A00088468142FADB1AF808100029F6D105980C
:1027B0005B46A0EB080721463846179A00F094FACA
:1027C000284400EB080507E04DE029E10DE01AF888
:1027D000010B5A4617999047B8F10108F7D25B46AA
:1027E00021463846179A13E142E00A220092C4F3C8
:1027F00002524FF0000A022A08D059F804CB032AEB
:102800004FEAEC710AD00DE029E02AE009F1070156
:1028100021F00702F2E802C1914609E00FFA8CFCB0
:102820004FEAEC71042A03D14FFA8CFC4FEAEC71A9
:10283000002907DA0A460021DCF1000C61EB0201F5
:102840002D2202E0220504D52B228DF8042001223E
:1028500003E0E20701D02022F7E7904659E00A2181
:1028600002E010220DE010214FF0000A00910BE071
:1028700010224FF0000A44F004040827009203E0FD
:1028800008224FF0000A0092C4F30252022A05D037
:1028900059F804CB0021032A08D009E009F1070107
:1028A00021F00702F2E802C1914605E01FFA8CFC14
:1028B000042A01D10CF0FF0C4FF00008220728D5A4
:1028C000702806D0009B83F0100353EA0A0305D05A
:1028D0000EE040228DF80420012208E05CEA0102AB
:1028E00006D030228DF804208DF805000222904693
:1028F000009B83F0080353EA0A030AD15CEA010251
:1029000001D1620705D530228DF804204FF001086F
:102910007F1E582804D034A003900EA802900DE02A
:1029200036A0F9E753466046009AFDF7A3FD8446BA
:102930000398825C0298401E029002705CEA0100DB
:10294000F0D1029806A9081A00F1200A600702D502
:1029500024F4803400E00127574502DDA7EB0A008C
:1029600000E0002000EB0A01009005984144401A65
:102970000590E00306D45B462146179A059800F0BF
:10298000B3F90544002706E001A85A46C05D17992F
:1029900090476D1C7F1C4745F6DBE0030CD55B467A
:1029A0002146179A059800F09FF9054404E030206D
:1029B0005A46179990476D1C0099481E00900029AF
:1029C000F5DC08E0029802995A460078491C029109
:1029D000179990476D1CBAF10001AAF1010AF1DCC8
:1029E00065E10000092801003031323334353637D3
:1029F000383961626364656600000000303132334B
:102A000034353637383941424344454600000000EA
:102A100000F058F90544761C307800287FF4ECADBE
:102A200019B02846BDE8F08F620700D4062709F1E7
:102A3000070222F0070CFCE80223E14603F00048FD
:102A40005FEA080C02D00FF2702C0DE05FEA045C24
:102A500002D50FF2682C07E05FEAC47C02D00FF2C7
:102A6000602C01E0AFF2700C4FF0FF3823F0004310
:102A7000CDF850C065280CD006DC452809D0462882
:102A80001DD047283DD13DE0662818D067287ED16B
:102A900038E00021112F01DB112000E0781CCDE986
:102AA000000106A90EA8FFF7DDFCDDE90F010E9A73
:102AB00003910021009207F1010A04914DE04FF0CB
:102AC00000400097CDE9011006A90EA8FFF7CAFC47
:102AD000DDE90F0203920E9B11990022DDF80CA094
:102AE0000093049211B9791C00EB010AB7EB0A00BC
:102AF00004D4C0F1FF3007F1010A0490AAEB0700EB
:102B0000019044E0012F00DA01270021112F01DD9F
:102B1000112000E03846CDE9000106A90EA8FFF714
:102B2000A1FCDDE90F010E9A0391002104910092AE
:102B3000BA4621070CD40399514500DA8A46BAF106
:102B4000010F05DD009AAAF10101515C302908D07E
:102B5000B84202DA10F1040F06DA0121CDE90110C2
:102B600015E0AAF10101E9E7002805DC0499014418
:102B70000491AAEB000102E0411C514500DD8A46A8
:102B80000499401A401C01904FF000400290200729
:102B900004D40198504501DBCDF8048000208DF865
:102BA0004F0002980DF14F07B0F1004F25D02B20B8
:102BB0000E9002984FF0020800280CDA4042029072
:102BC0002D200E9007E00A210298FDF73DFC3031E0
:102BD000029007F8011DB8F10001A8F10108F2DC2C
:102BE00002980028EFD1791E0E980870307800F016
:102BF000200040F0450007F8020D12A8C01B00F1AC
:102C000007081498007800B1012000EB0A01019830
:102C100001EBE07105984144401A401E0590E00325
:102C200006D45B462146179A059800F05DF80544E6
:102C30001498007818B15A46179990476D1CE00314
:102C400024D55B462146179A059800F04DF80544B7
:102C50001CE00498002807DBDDE90301884203DD5E
:102C60000098405C179901E0179930205A46904728
:102C7000049805F10105401C04900198401E019044
:102C800004D12E205A46179990476D1CBAF10001C5
:102C9000AAF1010ADDDC05E017F8010B5A46179985
:102CA00090476D1CB8F10001A8F10108F4DC5B4607
:102CB0002146179A0598ABE62D0000002B00000076
:102CC000200000002DE9F041044600251E4617466D
:102CD000880404D405E039462020B0476D1C641EEA
:102CE000F9D52846BDE8F0812DE9F04104460025DC
:102CF0001E469046C80301D5302700E020278804EF
:102D000004D505E041463846B0476D1C641EF9D530
:102D10002846BDE8F0810A68531C0B6010707047AC
:102D2000322000E0401E0028FCD170472DE9F04120
:102D300000242B4800684FF47A71B0FBF1F5B5F12F
:102D4000807F00D311E025F07F40401E4FF0E0214E
:102D500048610F214FF0FF30FEF72AFE00204FF0B0
:102D6000E02188610720086100BF00BF1D4800689E
:102D7000C0F3022004462046002213460146C1F15A
:102D8000070CBCF1040F02D94FF0040C01E0C1F1B3
:102D9000070C674601F1040CBCF1070F02D24FF09B
:102DA000000C01E0A1F1030C66464FF0010C0CFA97
:102DB00007FCACF1010C0CEA020C0CFA06FC4FF01B
:102DC000010808FA06F8A8F1010808EA03084CEA25
:102DD000080529464FF0FF30FEF7EAFDBDE8F08117
:102DE000680000200CED00E010B504462046FEF718
:102DF00064FB10BD70B50446FEF70CFB0546264685
:102E000000BFFEF707FB401BB042FAD370BD0000C5
:102E1000FFF78CFFFDF776FFFEF765FDFEF714FC6C
:102E2000FDF77EFF00F052F8FEF70AFDFEF7C6FE42
:102E3000FEF768F9FDF788FEFDF790FF41F61F41A8
:102E40006320FFF718F841F61F416320FEF7A4FF47
:102E500000F01CF816E0FEF7A7F805210820FEF7A1
:102E600015FB322100FB01F4E01704EB1050C0F316
:102E7000073005498870081D00F076F9FEF7F8FC68
:102E800000F0C0F9E7E700000000002070B5002462
:102E900018E004F1B0000021FEF72CFE00210846E6
:102EA000FEF728FE00211020FEF724FE002505E095
:102EB00001210020FEF71EFE681CC5B2802DF7DB45
:102EC000601CC4B2082CE4DB70BD000008B5012111
:102ED0000420FEF753FE10208DF8030003208DF828
:102EE00002004FF48050ADF8000069464748FEF7F5
:102EF000F8F94FF40060ADF8000069464348FEF76A
:102F0000F0F94FF480514148FEF781FA4FF4006127
:102F10003E48FEF77CFA00BFAE2200217820FEF783
:102F2000DFFE0028F8D04FF4C870FDF7ACFF002199
:102F3000AE20FEF7DFFD00210846FEF7DBFD002195
:102F40001020FEF7D7FD00214020FEF7D3FD002121
:102F5000B020FEF7CFFD00218120FEF7CBFD002140
:102F6000FF20FEF7C7FD0021A120FEF7C3FD0021D1
:102F7000A620FEF7BFFD0021A820FEF7BBFD002123
:102F80003F20FEF7B7FD0021C820FEF7B3FD00216A
:102F9000D320FEF7AFFD00210846FEF7ABFD002170
:102FA000D520FEF7A7FD00218020FEF7A3FD00211C
:102FB000D820FEF79FFD00210520FEF79BFD002194
:102FC000D920FEF797FD0021F120FEF793FD0021A7
:102FD000DA20FEF78FFD00211220FEF78BFD002185
:102FE000DB20FEF787FD00213020FEF783FD002166
:102FF0008D20FEF77FFD00211420FEF77BFD0021D0
:10300000AF20FEF777FDFFF741FF08BD0008014044
:103010002DE9F04180460E461546002731464046D0
:10302000FEF7DAFC00240AE0124A02EBC511085D43
:103030000121FEF75FFD781CC7B2601CC4B2102CE2
:10304000F2DB701CC1B24046FEF7C6FC00240CE067
:103050006900491C074A02EB8111085D0121FEF756
:1030600049FD781CC7B2601CC4B2102CF0DBBDE86F
:10307000F08100006C3A00082DE9FF5F0746914699
:103080001E460E9D4FF0000A002435E0301B401E06
:10309000C1B20A2000F051F8B9FBF0F00A21B0FBF0
:1030A000F1F201FB1208BAF1000F14D1701EA04218
:1030B00011DDB8F1000F0CD1AB4605EBDB71491007
:1030C00001FB0471C8B22B4620220199FEF798FC3F
:1030D00010E04FF0010AAB4605EBDB71491001FB34
:1030E0000471C8B208F13001CAB22B460199FEF74B
:1030F00087FC00BF601CC4B2B442C7DBBDE8FF9FC1
:103100002DE9F04104460F461546984600260FE08B
:10311000AA5D434639462046FEF772FC04F10800DA
:10312000C4B2782C02DD0024B81CC7B2701CC6B231
:10313000A85D0028ECD1BDE8F08110B50246012061
:1031400000E050430B1EA1F10104E1B2F9D110BD22
:1031500000B54FF4807202490248FEF76FF800BDD7
:103160008000002000F000082DE9FF5F04464FF0CA
:10317000000B2248007868B9FDF73EFE00283BD0DE
:10318000CC20FDF771FE4420FDF76EFE01201B49A7
:10319000087031E01948007801282DD1FDF72CFE88
:1031A00050B3CC20FDF760FEBE20FDF75DFEFDF7BD
:1031B00013FE8146FDF710FE824649EA0A2B0BF00A
:1031C0000F00FDF7ECF8074600220D4BFDF770F8F5
:1031D00005460E464FEA2B10FDF7E1F82A46334626
:1031E000CDE90001FCF7BDFFCDE90201FDF7FBF8D9
:1031F0002060002001490870BDE8FF9F2C000020DE
:103200000000B03F70B503250A4E00240EE00A48C6
:10321000005D315D884207D02A4606490648FCF722
:1032200081FF00F00BF870BD601C84B2AC42EEDB95
:1032300000BFF8E7080000208200002010B54FF41E
:10324000807202490248FEF726F810BD8000002077
:1032500000F000080000000000000000002F000047
:1032600000000700070000147F147F1400242A7F49
:103270002A120062640813230036495522500000C8
:103280000503000000001C224100000041221C0038
:103290000014083E08140008083E0808000000A0BA
:1032A00060000008080808080000606000000020B6
:1032B00010080402003E5149453E0000427F400094
:1032C000004261514946002141454B31001814121A
:1032D0007F10002745454539003C4A4949300001E7
:1032E0007109050300364949493600064949291E36
:1032F0000000363600000000563600000008142298
:103300004100001414141414000041221408000297
:103310000151090600324959513E007C1211127CBC
:10332000007F49494936003E41414122007F4141E9
:10333000221C007F49494941007F09090901003EDB
:103340004149497A007F0808087F0000417F410019
:10335000002040413F01007F08142241007F40408F
:103360004040007F020C027F007F0408107F003E77
:103370004141413E007F09090906003E4151215E5D
:10338000007F091929460046494949310001017F5A
:103390000101003F4040403F001F2040201F003FF0
:1033A0004038403F006314081463000708700807A2
:1033B00000615149454300007F41410000552A55B5
:1033C0002A55000041417F00000402010204004030
:1033D0004040404000000102040000205454547852
:1033E000007F484444380038444444200038444472
:1033F000487F00385454541800087E090102001810
:10340000A4A4A47C007F080404780000447D40004C
:10341000004080847D00007F102844000000417F30
:103420004000007C04180478007C0804047800380C
:103430004444443800FC242424180018242418FC94
:10344000007C0804040800485454542000043F44FD
:103450004020003C4040207C001C2040201C003CC0
:103460004030403C004428102844001CA0A0A07C10
:10347000004464544C441414141414140000000048
:10348000000000000000000000000000000000F844
:1034900000000000000000333000000000100C06A7
:1034A000100C0600000000000000000040C0784042
:1034B000C0784000043F04043F040400007088FC0E
:1034C00008300000001820FF211E0000F008F00066
:1034D000E018000000211C031E211E0000F00888D7
:1034E000700000001E2123241927211010160E0041
:1034F000000000000000000000000000000000E0EC
:103500001804020000000007182040000002041800
:10351000E00000000040201807000000404080F05C
:10352000804040000202010F01020200000000F092
:10353000000000000101011F010101000000000066
:103540000000000080B070000000000000000000DB
:103550000000000000010101010101010000000064
:1035600000000000003030000000000000000000FB
:1035700080601804006018060100000000E01008D8
:103580000810E000000F102020100F00001010F8AD
:10359000000000000020203F2020000000700808EC
:1035A000088870000030282422213000003008886C
:1035B000884830000018202020110E000000C02094
:1035C00010F8000000070424243F240000F80888B5
:1035D000880808000019212020110E0000E0108842
:1035E00088180000000F112020110E000038080874
:1035F000C83808000000003F000000000070880884
:1036000008887000001C222121221C0000E0100804
:103610000810E0000000312222110F00000000C05D
:10362000C0000000000000303000000000000080FA
:1036300000000000000080600000000000008040EA
:103640002010080000010204081020004040404003
:103650004040400004040404040404000008102056
:10366000408000000020100804020100007048089B
:103670000808F0000000003036010000C030C82803
:10368000E810E0000718272423140B000000C038BE
:10369000E0000000203C23020227382008F8888838
:1036A00088700000203F202020110E00C030080844
:1036B00008083800071820202010080008F808081B
:1036C0000810E000203F202020100F0008F8888814
:1036D000E8081000203F20202320180008F88888E0
:1036E000E8081000203F200003000000C030080858
:1036F0000838000007182020221E020008F80800E1
:103700000008F808203F210101213F20000808F8A7
:10371000080800000020203F2020000000000808CA
:10372000F8080800C08080807F00000008F888C08A
:1037300028180800203F20012638200008F808003B
:1037400000000000203F20202020300008F8F80072
:10375000F8F80800203F003F003F200008F830C084
:103760000008F808203F200007183F00E010080874
:103770000810E0000F10202020100F0008F80808A3
:103780000808F000203F210101010000E0100808B6
:103790000810E0000F18242438504F0008F88888DB
:1037A00088887000203F2000030C302000708808BB
:1037B000080838000038202121221C00180808F8C9
:1037C000080818000000203F2000000008F808004A
:1037D0000008F808001F202020201F00087888001B
:1037E00000C83808000007380E010000F80800F88B
:1037F0000008F800033C0700073C03000818688035
:103800008068180820302C03032C30200838C800AA
:10381000C83808000000203F2000000010080808F9
:10382000C83808002038262120201800000000FE9B
:10383000020202000000007F40404000000C30C047
:1038400000000000000000010638C0000002020273
:10385000FE000000004040407F0000000000040225
:103860000202040000000000000000000000000050
:103870000000000080808080808080800002020440
:103880000000000000000000000000000000808038
:10389000808000000019242222223F2008F80080A6
:1038A00080000000003F112020110E000000008069
:1038B00080800000000E11202020110000000080F8
:1038C0008088F800000E112020103F20000080802A
:1038D00080800000001F222222221300008080F03E
:1038E000888888180020203F202000000000808069
:1038F00080808000006B94949493600008F80080AE
:1039000080800000203F210000203F200080989808
:10391000000000000020203F202000000000008068
:103920009898000000C08080807F000008F80000A8
:1039300080808000203F24022D302000000808F8FD
:10394000000000000020203F2020000080808080B8
:1039500080808000203F20003F20003F808000804A
:1039600080800000203F210000203F200000808058
:1039700080800000001F202020201F008080008009
:103980008000000080FFA12020110E0000000080B8
:1039900080808000000E112020A0FF8080808000A9
:1039A0008080800020203F212000010000008080D6
:1039B000808080000033242424241900008080E0CB
:1039C000808000000000001F202000008080000098
:1039D00000808000001F202020103F208080800079
:1039E0000080808000010E30080601008080008089
:1039F000008080800F300C030C300F0000808000AE
:103A0000808080000020312E0E31200080808000D8
:103A10000080808080818E70180601000080808088
:103A2000808080000021302C222130000000000026
:103A3000807C020200000000003F404000000000C7
:103A4000FF00000000000000FF0000000002027CF8
:103A5000800000000040403F00000000000601011F
:103A60000202040400000000000000000000A0604A
:103A700058F650A8287090905030100000000000B8
:103A80000000000000000000000000000000000036
:103A90000000000000000000000000000000000026
:103AA0000000000000000000000000000000040210
:103AB00001007E4A2A2AFE020000000000000000E9
:103AC00000000000000000000000000000000000F6
:103AD00000000000000000000000000000000000E6
:103AE0000000000000000000000000000000605026
:103AF0004CC430007E909088400000000000000020
:103B000000000000000000000000000000000000B5
:103B100000000000000000000000000000000000A5
:103B20000000000000000000000000000000340B56
:103B30000B6639001F2444422030000000000000C2
:103B40000000000000000000000000000000000075
:103B50000000000000000000000000000000000065
:103B60000000000000000000000000000020E03C19
:103B7000E4A08060504C5020E040000000000000B5
:103B80000000000000000000000000000000000035
:103B90000000000000000000000000000000000025
:103BA00000000000000000000000000000080909FB
:103BB0003F013609790706207F0000000000000061
:103BC00000000000000000000000000000000000F5
:103BD00000000000000000000000000000000000E5
:103BE000000000000000000000000000000040880D
:103BF0000800A06020B45090800000000000000089
:103C000000000000000000000000000000000000B4
:103C100000000000000000000000000000000000A4
:103C200000000000000000000000000000003C0355
:103C300002017F24150A14332120400000000000F7
:103C40000000000000000000000000000000000074
:103C50000000000000000000000000000000000064
:103C6000000000000000000000000000000000084C
:103C7000F000FC80601CA4A0100000000000000008
:103C80000000000000000000000000000000000034
:103C90000000000000000000000000000000000024
:103CA0000000000000000000000000000000404094
:103CB0003D243D243C26223E202020000000000020
:103CC00000000000000000000000000000000000F4
:103CD00000000000000000000000000000000000E4
:103CE0000000000000000000000000000000C0080C
:103CF00000F808E8F808C02000FC00000000000000
:103D000000000000000000000000000000000000B3
:103D100000000000000000000000000000000000A3
:103D200000000000000000000000000000000E0184
:103D300000130E050B180110203F000000000000CA
:103D40000000000000000000000000000000000073
:103D50000000000000000000000000000000000063
:103D60000000000000000000000000000000000053
:103D7000486868D84C2436000000000000000000AD
:103D80000000000000000000000000000000000033
:103D90000000000000000000000000000000000023
:103DA00000000000000000000000000000000030E3
:103DB0001A0303C23E02091B1000000000000000AD
:103DC00000000000000000000000000000000000F3
:103DD00000000000000000000000000000000000E3
:103DE0000000000000000000000000000000C0A073
:103DF0009C402020A0642C901000000000000000D7
:103E000000000000000000000000000000000000B2
:103E100000000000000000000000000000000000A2
:103E2000000000000000000000000000000010136F
:103E30000A2A140A05031F20212030000000000078
:103E40000000000000000000000000000000000072
:103E50000000000000000000000000000000000062
:103E6000000000000000000000000000000088705A
:103E700004044074C4349404FC00000000000000FA
:103E80000000000000000000000000000000000032
:103E90000000000000000000000000000000000022
:103EA00000000000000000000000000000003F00D3
:103EB000090B07090907084C633C000000000000DB
:103EC00000000000000000000000000000000000F2
:103ED00000000000000000000000000000000000E2
:103EE000000000000000000000000000000080E072
:103EF0001C040080907C54D0C00000000000000032
:103F000000000000000000000000000000000000B1
:103F100000000000000000000000000000000000A1
:103F20000000000000000000000000000001003F51
:103F30000000203E352B293F2020202000000000DB
:103F40000000000000000000000000000000000071
:103F50000000000000000000000000000000000061
:103F600000000000000000000000000000808084CD
:103F7000CC0800C03808BC4440000000000000002D
:103F80000000000000000000000000000000000031
:103F90000000000000000000000000000000000021
:103FA00000000000000000000000000000000030E1
:103FB0001F08002225191E2160404000000000005B
:103FC00000000000000000000000000000000000F1
:103FD00000000000000000000000000000000000E1
:103FE00000000000000000000000000000000000D1
:103FF00018A898645C54545C0400000000000000A1
:1040000000000000000000000000000000000000B0
:1040100000000000000000000000000000000000A0
:104020000000000000000000000000000000404010
:10403000403F2B3727392720202020000000000098
:104040000000000000000000000000000000000070
:104050000000000000000000000000000000000060
:104060000000000000000000000000000000000050
:10407000000000FC8C804040400000000000000078
:104080000000000000000000000000000000000030
:104090000000000000000000000000000000000020
:1040A00000000000000000000000000000002020D0
:1040B0002020101F10101010101010000000000021
:1040C00000000000000000000000000000000000F0
:1040D00000000000000000000000000000000000E0
:1040E00000000000000000000000000000001010B0
:1040F000101008F8888888080808080000000000E8
:1041000000000000000000000000000000000000AF
:10411000000000000000000000000000000000009F
:10412000000000000000000000000000000000008F
:104130000000007F000001010000000000000000FE
:10414000000000000000000000000000000000006F
:10415000000000000000000000000000000000005F
:104160000000000000000000000000000000F8084F
:10417000788800F8A8A8F40C800000000000000077
:10418000000000000000000000000000000000002F
:10419000000000000000000000000000000000001F
:1041A00000000000000000000000000000003F01CF
:1041B0000101007E310A060D181800000000000001
:1041C00000000000000000000000000000000000EF
:1041D00000000000000000000000000000000000DF
:1041E000000000000000000000000000000040444B
:1041F00008109090B2D67848C8080000000000006F
:1042000000000000000000000000000000000000AE
:10421000000000000000000000000000000000009E
:104220000000000000000000000000000000180670
:1042300001001F0D130B0D207F0000000000000087
:10424000000000000000000000000000000000006E
:10425000000000000000000000000000000000005E
:104260000000000000000000000000000000808846
:104270001800D05050FCB0E020000000000000000A
:10428000000000000000000000000000000000002E
:10429000000000000000000000000000000000001E
:1042A0000000000000000000000000000010101FCF
:1042B00010182825233F22626420200000000000FF
:1042C00000000000000000000000000000000000EE
:1042D00000000000000000000000000000000000DE
:1042E0000000000000000000000000000000408806
:1042F0000800A06020B45090800000000000000082
:1043000000000000000000000000000000000000AD
:10431000000000000000000000000000000000009D
:1043200000000000000000000000000000003C034E
:1043300002017F24150A14332120400000000000F0
:10434000000000000000000000000000000000006D
:10435000000000000000000000000000000000005D
:10436000000000000000000000000000000000C08D
:10437000300C0000484840400000000000000000F1
:10438000000000000000000000000000000000002D
:10439000000000000000000000000000000000001D
:1043A0000000000000000000000000000002013CCE
:1043B0000300202610181611101010000000000035
:1043C00000000000000000000000000000000000ED
:1043D00000000000000000000000000000000000DD
:1043E00000000000000000000000000000000000CD
:1043F00080901010E808888800000000000000008D
:1044000000000000000000000000000000000000AC
:10441000000000000000000000000000000000009C
:10442000000000000000000000000000000020204C
:104430001E1110101F1110101010100000000000AD
:10444000000000000000000000000000000000006C
:10445000000000000000000000000000000000005C
:104460000000000000000000000000000000C0206C
:1044700024E8605E50D85454303000000000000042
:10448000000000000000000000000000000000002C
:10449000000000000000000000000000000000001C
:1044A000000000000000000000000000000000000C
:1044B0001C0405FF0312321E000000000000000073
:1044C00000000000000000000000000000000000EC
:1044D00000000000000000000000000000000000DC
:1044E00000000000000000000000000000008080CC
:1044F000880020A02020FC201010000000000000F8
:1045000000000000000000000000000000000000AB
:10451000000000000000000000000000000000009B
:104520000000000000000000000000000000100F6C
:104530001010101025282F606020200000000000BF
:10454000000000000000000000000000000000006B
:10455000000000000000000000000000000000005B
:104560000000000000000000000000000000400803
:10457000180008F8A868687418000000000000001F
:10458000000000000000000000000000000000002B
:10459000000000000000000000000000000000001B
:1045A0000000000000000000000000000000300ECD
:1045B00022203E221E122E221F12000000000000A8
:1045C00000000000000000000000000000000000EB
:1045D00000000000000000000000000000000000DB
:1045E00000000000000000000000000000000000CB
:1045F000F090B0F056D828480000000000000000FD
:1046000000000000000000000000000000000000AA
:10461000000000000000000000000000000000009A
:104620000000000000000000000000000020100C4E
:104630004340402D131E2260404040000000000017
:10464000000000000000000000000000000000006A
:10465000000000000000000000000000000000005A
:10466000000000000000000000000000000C120C20
:1046700000C070100808080810300000000000009A
:10468000000000000000000000000000000000002A
:10469000000000000000000000000000000000001A
:1046A000000000000000000000000000000000000A
:1046B000000F183020202020301C000000000000D7
:1046C00000000000000000000000000000000000EA
:1046D00000000000000000000000000000000000DA
:1046E000000000000000000000000000000080004A
:1046F000800010300000001020600000000000006A
:1047000000000000000000000000000000000000A9
:104710000000000000000000000000000000000099
:104720000000000000000000000000000002030084
:1047300001060C080818090E0C000000000000001B
:104740000000000000000000000000000000000069
:104750000000000000000000000000000000000059
:10476000000000000000000000000000000000A0A9
:104770006048B86EA494045080000000000000005F
:104780000000000000000000000000000000000029
:104790000000000000000000000000000000000019
:1047A00000000000000000000000000000040405FC
:1047B0000405057D06040404020202000000000056
:1047C00000000000000000000000000000000000E9
:1047D00000000000000000000000000000000000D9
:1047E0000000000000000000000000000000008049
:1047F00080C0A098808040C08000000000000000C1
:1048000000000000000000000000000000000000A8
:104810000000000000000000000000000000000098
:104820000000000000000000000000000010101058
:104830001F101F101F101817101810000000000084
:104840000000000000000000000000000000000068
:104850000000000000000000000000000000000058
:104860000000000000000000000000000000000048
:1048700050C856F43424E02000000000000000007E
:104880000000000000000000000000000000000028
:104890000000000000000000000000000000000018
:1048A00000000000000000000000000000001010E8
:1048B00014760F0909080F30204070000000000036
:1048C00000000000000000000000000000000000E8
:1048D00000000000000000000000000000000000D8
:1048E0000000000000000000000000000000804008
:1048F000B80C00E010F88C844000000000000000BC
:1049000000000000000000000000000000000000A7
:104910000000000000000000000000000000000097
:104920000000000000000000000000000001002066
:104930001F00100F05141304183030000000000091
:104940000000000000000000000000000000000067
:104950000000000000000000000000000000000057
:104960000000000000000000000000002000000027
:104970000000000000000000000000000000000037
:104980002000000000000000000000000000000007
:104990000000000000404040404040404040414155
:1049A0004141414040404040404040404040404004
:1049B000404040404005020202020202020202029E
:1049C000020202020220202020202020202020029B
:1049D000020202020202909090909090101010102B
:1049E00010101010101010101010101010101010C7
:1049F000020202020202888888888888080808085B
:104A00000808080808080808080808080808080826
:104A10000202020240000000954900083C4A0008DA
:104A2000000000208000000044240008BC4A000868
:104A30008000002000060000542400080000000050
:104A40000000000000000000000000000000000066
:104A50000000000000000000000000000000000056
:104A60000000000000000000000000003030303086
:104A700030202020202020202020202000543D30E5
:104A8000303030206D7300303030202F6D696E0073
:104A90000000000000000000000000000000000016
:104AA0000000000000A24A04000000000000000016
:0C4AB000010203040607080900000000D2
:04000005080000ED02
:00000001FF
